{
  "contractName": "TEST",
  "abi": [
    {
      "constant": true,
      "inputs": [],
      "name": "name",
      "outputs": [
        {
          "name": "",
          "type": "string"
        }
      ],
      "payable": false,
      "stateMutability": "view",
      "type": "function"
    },
    {
      "constant": true,
      "inputs": [],
      "name": "INITIAL_SUPPLY",
      "outputs": [
        {
          "name": "",
          "type": "uint256"
        }
      ],
      "payable": false,
      "stateMutability": "view",
      "type": "function"
    },
    {
      "constant": true,
      "inputs": [],
      "name": "decimals",
      "outputs": [
        {
          "name": "",
          "type": "uint256"
        }
      ],
      "payable": false,
      "stateMutability": "view",
      "type": "function"
    },
    {
      "constant": true,
      "inputs": [],
      "name": "symbol",
      "outputs": [
        {
          "name": "",
          "type": "string"
        }
      ],
      "payable": false,
      "stateMutability": "view",
      "type": "function"
    }
  ],
  "bytecode": "0x608060405234801561001057600080fd5b5061028c806100206000396000f300608060405260043610610062576000357c0100000000000000000000000000000000000000000000000000000000900463ffffffff16806306fdde03146100675780632ff2e9dc146100f7578063313ce5671461012257806395d89b411461014d575b600080fd5b34801561007357600080fd5b5061007c6101dd565b6040518080602001828103825283818151815260200191508051906020019080838360005b838110156100bc5780820151818401526020810190506100a1565b50505050905090810190601f1680156100e95780820380516001836020036101000a031916815260200191505b509250505060405180910390f35b34801561010357600080fd5b5061010c610216565b6040518082815260200191505060405180910390f35b34801561012e57600080fd5b50610137610222565b6040518082815260200191505060405180910390f35b34801561015957600080fd5b50610162610227565b6040518080602001828103825283818151815260200191508051906020019080838360005b838110156101a2578082015181840152602081019050610187565b50505050905090810190601f1680156101cf5780820380516001836020036101000a031916815260200191505b509250505060405180910390f35b6040805190810160405280600a81526020017f5445535420746f6b656e0000000000000000000000000000000000000000000081525081565b601260640a6103e80281565b601281565b6040805190810160405280600481526020017f5445535400000000000000000000000000000000000000000000000000000000815250815600a165627a7a72305820bd033fa50d52e903c52123a7ab3697da84d4a6552462af03abc3cd19b27669b80029",
  "source": "pragma solidity >=0.4.0 <0.9.2;\r\n\r\ncontract TEST {\r\n    string public constant name = \"TEST token\";\r\n    string public constant symbol = \"TEST\";\r\n    uint256 public constant decimals = 18;\r\n    uint256 public constant INITIAL_SUPPLY = 1000 * 100 **decimals;\r\n}",
  "sourcePath": "C:\\Users\\FIT\\Desktop\\SmartContract\\contracts\\Test.sol",
  "compiler": {
    "name": "solc",
    "version": "0.4.25+commit.59dbf8f1.Emscripten.clang"
  },
  "schemaVersion": "2.0.2",
  "updatedAt": "2022-02-16T06:26:13.943Z"
}